{
  "_format": "hh3-artifact-1",
  "contractName": "RevenueVault",
  "sourceName": "contracts/RevenueVault.sol",
  "abi": [
    {
      "inputs": [
        {
          "internalType": "address",
          "name": "initialOwner",
          "type": "address"
        }
      ],
      "stateMutability": "nonpayable",
      "type": "constructor"
    },
    {
      "inputs": [
        {
          "internalType": "address",
          "name": "owner",
          "type": "address"
        }
      ],
      "name": "OwnableInvalidOwner",
      "type": "error"
    },
    {
      "inputs": [
        {
          "internalType": "address",
          "name": "account",
          "type": "address"
        }
      ],
      "name": "OwnableUnauthorizedAccount",
      "type": "error"
    },
    {
      "inputs": [
        {
          "internalType": "address",
          "name": "token",
          "type": "address"
        }
      ],
      "name": "SafeERC20FailedOperation",
      "type": "error"
    },
    {
      "anonymous": false,
      "inputs": [
        {
          "indexed": true,
          "internalType": "address",
          "name": "token",
          "type": "address"
        },
        {
          "indexed": false,
          "internalType": "address[]",
          "name": "recipients",
          "type": "address[]"
        },
        {
          "indexed": false,
          "internalType": "uint256[]",
          "name": "amounts",
          "type": "uint256[]"
        }
      ],
      "name": "ERC20Distributed",
      "type": "event"
    },
    {
      "anonymous": false,
      "inputs": [
        {
          "indexed": true,
          "internalType": "address",
          "name": "token",
          "type": "address"
        },
        {
          "indexed": true,
          "internalType": "address",
          "name": "to",
          "type": "address"
        },
        {
          "indexed": false,
          "internalType": "uint256",
          "name": "amount",
          "type": "uint256"
        }
      ],
      "name": "ERC20Withdrawn",
      "type": "event"
    },
    {
      "anonymous": false,
      "inputs": [
        {
          "indexed": true,
          "internalType": "address",
          "name": "from",
          "type": "address"
        },
        {
          "indexed": false,
          "internalType": "uint256",
          "name": "amount",
          "type": "uint256"
        }
      ],
      "name": "NativeReceived",
      "type": "event"
    },
    {
      "anonymous": false,
      "inputs": [
        {
          "indexed": true,
          "internalType": "address",
          "name": "to",
          "type": "address"
        },
        {
          "indexed": false,
          "internalType": "uint256",
          "name": "amount",
          "type": "uint256"
        }
      ],
      "name": "NativeWithdrawn",
      "type": "event"
    },
    {
      "anonymous": false,
      "inputs": [
        {
          "indexed": true,
          "internalType": "address",
          "name": "previousOwner",
          "type": "address"
        },
        {
          "indexed": true,
          "internalType": "address",
          "name": "newOwner",
          "type": "address"
        }
      ],
      "name": "OwnershipTransferred",
      "type": "event"
    },
    {
      "inputs": [
        {
          "internalType": "address",
          "name": "token",
          "type": "address"
        },
        {
          "internalType": "address[]",
          "name": "recipients",
          "type": "address[]"
        },
        {
          "internalType": "uint256[]",
          "name": "amounts",
          "type": "uint256[]"
        }
      ],
      "name": "distributeERC20",
      "outputs": [],
      "stateMutability": "nonpayable",
      "type": "function"
    },
    {
      "inputs": [],
      "name": "owner",
      "outputs": [
        {
          "internalType": "address",
          "name": "",
          "type": "address"
        }
      ],
      "stateMutability": "view",
      "type": "function"
    },
    {
      "inputs": [],
      "name": "renounceOwnership",
      "outputs": [],
      "stateMutability": "nonpayable",
      "type": "function"
    },
    {
      "inputs": [
        {
          "internalType": "address",
          "name": "newOwner",
          "type": "address"
        }
      ],
      "name": "transferOwnership",
      "outputs": [],
      "stateMutability": "nonpayable",
      "type": "function"
    },
    {
      "inputs": [
        {
          "internalType": "address",
          "name": "token",
          "type": "address"
        },
        {
          "internalType": "address",
          "name": "to",
          "type": "address"
        },
        {
          "internalType": "uint256",
          "name": "amount",
          "type": "uint256"
        }
      ],
      "name": "withdrawERC20",
      "outputs": [],
      "stateMutability": "nonpayable",
      "type": "function"
    },
    {
      "inputs": [
        {
          "internalType": "address payable",
          "name": "to",
          "type": "address"
        },
        {
          "internalType": "uint256",
          "name": "amount",
          "type": "uint256"
        }
      ],
      "name": "withdrawNative",
      "outputs": [],
      "stateMutability": "nonpayable",
      "type": "function"
    },
    {
      "stateMutability": "payable",
      "type": "receive"
    }
  ],
  "bytecode": "0x608060405234801561000f575f80fd5b506040516109ea3803806109ea83398101604081905261002e916100bb565b806001600160a01b03811661005c57604051631e4fbdf760e01b81525f600482015260240160405180910390fd5b6100658161006c565b50506100e8565b5f80546001600160a01b038381166001600160a01b0319831681178455604051919092169283917f8be0079c531659141344cd1fd0a4f28419497f9722a3daafe3b4186f6b6457e09190a35050565b5f602082840312156100cb575f80fd5b81516001600160a01b03811681146100e1575f80fd5b9392505050565b6108f5806100f55f395ff3fe608060405260043610610057575f3560e01c806307b18bde1461009757806344004cc1146100b8578063715018a6146100d75780638da5cb5b146100eb578063b32d79dd14610115578063f2fde38b14610134575f80fd5b366100935760405134815233907f8ac633e5b094e1150d2a6495df4d0c77f51d293abe99e7733c78870dfbee76609060200160405180910390a2005b5f80fd5b3480156100a2575f80fd5b506100b66100b13660046106e0565b610153565b005b3480156100c3575f80fd5b506100b66100d236600461070a565b6102be565b3480156100e2575f80fd5b506100b66103ad565b3480156100f6575f80fd5b505f54604080516001600160a01b039092168252519081900360200190f35b348015610120575f80fd5b506100b661012f366004610790565b6103c0565b34801561013f575f80fd5b506100b661014e36600461080d565b610578565b61015b6105b5565b6001600160a01b03821661019f5760405162461bcd60e51b815260206004820152600660248201526562616420746f60d01b60448201526064015b60405180910390fd5b804710156101de5760405162461bcd60e51b815260206004820152600c60248201526b1a5b9cdd59999a58da595b9d60a21b6044820152606401610196565b5f826001600160a01b0316826040515f6040518083038185875af1925050503d805f8114610227576040519150601f19603f3d011682016040523d82523d5f602084013e61022c565b606091505b50509050806102765760405162461bcd60e51b81526020600482015260166024820152751b985d1a5d99481d1c985b9cd9995c8819985a5b195960521b6044820152606401610196565b826001600160a01b03167fc303ca808382409472acbbf899c316cf439f409f6584aae22df86dfa3c9ed504836040516102b191815260200190565b60405180910390a2505050565b6102c66105b5565b6001600160a01b0383166103085760405162461bcd60e51b81526020600482015260096024820152683130b2103a37b5b2b760b91b6044820152606401610196565b6001600160a01b0382166103475760405162461bcd60e51b815260206004820152600660248201526562616420746f60d01b6044820152606401610196565b61035b6001600160a01b03841683836105e1565b816001600160a01b0316836001600160a01b03167fbfed55bdcd242e3dd0f60ddd7d1e87c67f61c34cd9527b3e6455d841b1025362836040516103a091815260200190565b60405180910390a3505050565b6103b56105b5565b6103be5f61061b565b565b6103c86105b5565b6001600160a01b03851661040a5760405162461bcd60e51b81526020600482015260096024820152683130b2103a37b5b2b760b91b6044820152606401610196565b82811461044b5760405162461bcd60e51b815260206004820152600f60248201526e0d8cadccee8d040dad2e6dac2e8c6d608b1b6044820152606401610196565b845f5b84811015610528575f8686838181106104695761046961082f565b905060200201602081019061047e919061080d565b6001600160a01b0316036104c45760405162461bcd60e51b815260206004820152600d60248201526c189859081c9958da5c1a595b9d609a1b6044820152606401610196565b6105208686838181106104d9576104d961082f565b90506020020160208101906104ee919061080d565b8585848181106105005761050061082f565b90506020020135846001600160a01b03166105e19092919063ffffffff16565b60010161044e565b50856001600160a01b03167fd635700a0983d6322c47ef889bcf92ebf60695b2c8e91540fbe5d9af9e7db7cb868686866040516105689493929190610843565b60405180910390a2505050505050565b6105806105b5565b6001600160a01b0381166105a957604051631e4fbdf760e01b81525f6004820152602401610196565b6105b28161061b565b50565b5f546001600160a01b031633146103be5760405163118cdaa760e01b8152336004820152602401610196565b6105ee838383600161066a565b61061657604051635274afe760e01b81526001600160a01b0384166004820152602401610196565b505050565b5f80546001600160a01b038381166001600160a01b0319831681178455604051919092169283917f8be0079c531659141344cd1fd0a4f28419497f9722a3daafe3b4186f6b6457e09190a35050565b60405163a9059cbb60e01b5f8181526001600160a01b038616600452602485905291602083604481808b5af1925060015f511483166106c05783831516156106b4573d5f823e3d81fd5b5f873b113d1516831692505b60405250949350505050565b6001600160a01b03811681146105b2575f80fd5b5f80604083850312156106f1575f80fd5b82356106fc816106cc565b946020939093013593505050565b5f805f6060848603121561071c575f80fd5b8335610727816106cc565b92506020840135610737816106cc565b929592945050506040919091013590565b5f8083601f840112610758575f80fd5b50813567ffffffffffffffff81111561076f575f80fd5b6020830191508360208260051b8501011115610789575f80fd5b9250929050565b5f805f805f606086880312156107a4575f80fd5b85356107af816106cc565b9450602086013567ffffffffffffffff808211156107cb575f80fd5b6107d789838a01610748565b909650945060408801359150808211156107ef575f80fd5b506107fc88828901610748565b969995985093965092949392505050565b5f6020828403121561081d575f80fd5b8135610828816106cc565b9392505050565b634e487b7160e01b5f52603260045260245ffd5b604080825281018490525f8560608301825b87811015610885578235610868816106cc565b6001600160a01b0316825260209283019290910190600101610855565b5083810360208501528481526001600160fb1b038511156108a4575f80fd5b8460051b91508186602083013701602001969550505050505056fea2646970667358221220c3acc469001c98283642c12fe9e664b4502261f143772deb424fd0707bea651a64736f6c63430008180033",
  "linkReferences": {},
  "deployedLinkReferences": {},
  "immutableReferences": {},
  "inputSourceName": "project/contracts/RevenueVault.sol",
  "buildInfoId": "solc-0_8_24-b885f75617f24682f13748e6380036b2597bf141"
}